:020000040000FA
:04000000ABEF0DF065
:10060000003F065B4F666D7D077F6F777C395E79B3
:100610007100000E956E000E836E000E566E100E69
:10062000556E000E636E000E626E000E676E000E59
:10063000666E000E696E000E686E20EEF0F010EE31
:1006400059F0080EDBCFE3FFE806FCE2580E646EBB
:100650004F0E656E7EEC0EF03DEC0DF060EC0EF092
:100660002DEC0CF04DEC0BF05DEF03F0E5EC08F039
:1006700079EC0EF05550011809E156500218D8B423
:1006800044EF03F046EF03F05DEF03F079EC0EF07A
:1006900001C055F002C056F056A051EF03F053EFE1
:1006A00003F05DEF03F035EC0AF0130E026E880ED6
:1006B000016E79EC0DF0624A632A62046310D8A4DB
:1006C00064EF03F066EF03F036EF03F0A2EC09F0FD
:1006D000010E586E000E576E070E576472EF03F04E
:1006E00074EF03F076EF03F0C5EF05F05850832662
:1006F00058505824586E010E026E2C0E016E79EC83
:100700000DF0572A6CEF03F0E5EC08F079EC0EF0F1
:100710006850011809E169500218D8B492EF03F04B
:1007200094EF03F06CEF05F079EC0EF001C068F087
:1007300002C069F068A69FEF03F0A1EF03F0CEEFCF
:1007400003F0010E096E010E01EC0DF0645001EC96
:100750000EF0664A672A580E596E68A6B2EF03F08B
:10076000B4EF03F0CCEF03F0020E66186710D8A4C4
:10077000BCEF03F0BEEF03F0CCEF03F0010E096E07
:10078000010E01EC0DF0655001EC0EF0000E676EED
:10079000000E666E4F0E596E624A632A68AED3EF42
:1007A00003F0D5EF03F000EF04F0070E096E010E21
:1007B00001EC0DF0645001EC0EF0580E5A6E68AE6C
:1007C000E4EF03F0E6EF03F0FEEF03F0020E66182D
:1007D0006710D8A4EEEF03F0F0EF03F0FEEF03F0A4
:1007E000070E096E010E01EC0DF0655001EC0EF0E4
:1007F000000E676E000E666E4F0E5A6E624A632AD6
:1008000069A605EF04F007EF04F034EF04F00D0ED5
:10081000096E010E01EC0DF0645001EC0EF0664A19
:10082000672A580E5B6E69A618EF04F01AEF04F001
:1008300032EF04F0020E66186710D8A422EF04F01D
:1008400024EF04F032EF04F00D0E096E010E01ECFE
:100850000DF0655001EC0EF0000E676E000E666E36
:100860004F0E5B6E624A632A68A439EF04F03BEFD7
:1008700004F068EF04F0010E096E020E01EC0DF0B9
:10088000645001EC0EF0664A672A580E5C6E68A44C
:100890004CEF04F04EEF04F066EF04F0020E661821
:1008A0006710D8A456EF04F058EF04F066EF04F098
:1008B000010E096E020E01EC0DF0655001EC0EF018
:1008C000000E676E000E666E4F0E5C6E624A632A03
:1008D00068AC6DEF04F06FEF04F09CEF04F0070ECE
:1008E000096E020E01EC0DF0645001EC0EF0664A48
:1008F000672A580E5D6E68AC80EF04F082EF04F05A
:100900009AEF04F0020E66186710D8A48AEF04F07C
:100910008CEF04F09AEF04F0070E096E020E01EC62
:100920000DF0655001EC0EF0000E676E000E666E65
:100930004F0E5D6E624A632A69A4A1EF04F0A3EF33
:1009400004F0D0EF04F00D0E096E020E01EC0DF074
:10095000645001EC0EF0664A672A580E5E6E69A478
:10096000B4EF04F0B6EF04F0CEEF04F0020E661818
:100970006710D8A4BEEF04F0C0EF04F0CEEF04F08F
:100980000D0E096E020E01EC0DF0655001EC0EF03B
:10099000000E676E000E666E4F0E5E6E624A632A30
:1009A00068A2D5EF04F0D7EF04F004EF05F0010ED4
:1009B000096E030E01EC0DF0645001EC0EF0664A76
:1009C000672A580E5F6E68A2E8EF04F0EAEF04F0C1
:1009D00002EF05F0020E66186710D8A4F2EF04F0DB
:1009E000F4EF04F002EF05F0010E096E030E01ECC6
:1009F0000DF0655001EC0EF0000E676E000E666E95
:100A00004F0E5F6E624A632A68AA09EF05F00BEF8A
:100A100005F038EF05F0070E096E030E01EC0DF03E
:100A2000645001EC0EF0664A672A580E606E68AAA0
:100A30001CEF05F01EEF05F036EF05F0020E66180C
:100A40006710D8A426EF05F028EF05F036EF05F083
:100A5000070E096E030E01EC0DF0655001EC0EF06F
:100A6000000E676E000E666E4F0E606E624A632A5D
:100A700069A23DEF05F03FEF05F06CEF05F00D0EBC
:100A8000096E030E01EC0DF0645001EC0EF0664AA5
:100A9000672A580E616E69A250EF05F052EF05F01B
:100AA0006AEF05F0020E66186710D8A45AEF05F039
:100AB0005CEF05F06AEF05F00D0E096E030E01EC18
:100AC0000DF0655001EC0EF0000E676E000E666EC4
:100AD0004F0E616E624A632A200E5918D8B473EF24
:100AE00005F075EF05F0C5EF05F0200E5A18D8B4E3
:100AF0007CEF05F07EEF05F0C5EF05F0200E5B18EA
:100B0000D8B485EF05F087EF05F0C5EF05F0200EAE
:100B10005C18D8B48EEF05F090EF05F0C5EF05F046
:100B2000200E5D18D8B497EF05F099EF05F0C5EFEA
:100B300005F0200E5E18D8B4A0EF05F0A2EF05F086
:100B4000C5EF05F0200E5F18D8B4A9EF05F0ABEFA4
:100B500005F0C5EF05F0200E6018D8B4B2EF05F02F
:100B6000B4EF05F0C5EF05F0200E6118D8B4BBEF67
:100B700005F0BDEF05F0C5EF05F0070E026ED00ED3
:100B8000016E79EC0DF021EC08F00F0E6218631085
:100B9000D8A4CDEF05F0CFEF05F084EF03F0C5EF5B
:100BA00005F000EF00F002BEE1EF05F0025007E1B2
:100BB000080E015CD8B0DFEF05F0E1EF05F00BEFB8
:100BC00006F003500410D8B4E8EF05F0EAEF05F0A2
:100BD000FAEF05F001C005F0010E066E052AF3EFED
:100BE00005F0D8900636052EF1EF05F0065092126A
:100BF000F9EF06F001C005F0010E066E052A03EFBD
:100C000006F0D8900636052E01EF06F00650FF0AD2
:100C10009216F9EF06F002BE19EF06F0025007E156
:100C2000100E015CD8B017EF06F019EF06F047EF91
:100C300006F003500410D8B420EF06F022EF06F0BF
:100C400034EF06F001C005F0F80E0526010E066E21
:100C5000052A2DEF06F0D8900636052E2BEF06F06C
:100C600006509312F9EF06F001C005F0F80E0526C4
:100C7000010E066E052A3FEF06F0D8900636052EC7
:100C80003DEF06F00650FF0A9316F9EF06F002BE9C
:100C900055EF06F0025007E1180E015CD8B053EF93
:100CA00006F055EF06F083EF06F003500410D8B4B9
:100CB0005CEF06F05EEF06F070EF06F001C005F0A5
:100CC000F00E0526010E066E052A69EF06F0D89093
:100CD0000636052E67EF06F006509412F9EF06F07F
:100CE00001C005F0F00E0526010E066E052A7BEF09
:100CF00006F0D8900636052E79EF06F00650FF0A6A
:100D00009416F9EF06F002BE91EF06F0025007E1EB
:100D1000200E015CD8B08FEF06F091EF06F0BFEF28
:100D200006F003500410D8B498EF06F09AEF06F0DE
:100D3000ACEF06F001C005F0E80E0526010E066EC8
:100D4000052AA5EF06F0D8900636052EA3EF06F08B
:100D500006509512F9EF06F001C005F0E80E0526E1
:100D6000010E066E052AB7EF06F0D8900636052E5E
:100D7000B5EF06F00650FF0A9516F9EF06F002BE31
:100D8000CDEF06F0025007E1280E015CD8B0CBEFA2
:100D900006F0CDEF06F0F9EF06F003500410D8B4DA
:100DA000D4EF06F0D6EF06F0E8EF06F001C005F04C
:100DB000E00E0526010E066E052AE1EF06F0D8903A
:100DC0000636052EDFEF06F006509612F9EF06F014
:100DD00001C005F0E00E0526010E066E052AF3EFB0
:100DE00006F0D8900636052EF1EF06F00650FF0A01
:100DF0009616120002BE08EF07F0025007E1080E37
:100E0000015CD8B006EF07F008EF07F032EF07F00B
:100E100003500410D8B40FEF07F011EF07F021EFE3
:100E200007F001C005F0010E066E052A1AEF07F063
:100E3000D8900636052E18EF07F00650801220EFE6
:100E400008F001C005F0010E066E052A2AEF07F032
:100E5000D8900636052E28EF07F00650FF0A8016B8
:100E600020EF08F002BE40EF07F0025007E1100E3D
:100E7000015CD8B03EEF07F040EF07F06EEF07F0EF
:100E8000F80E0126FF0E022203500410D8B44BEFD7
:100E900007F04DEF07F05DEF07F001C005F0010E20
:100EA000066E052A56EF07F0D8900636052E54EF49
:100EB00007F00650811220EF08F001C005F0010E86
:100EC000066E052A66EF07F0D8900636052E64EF09
:100ED00007F00650FF0A811620EF08F002BE7CEFF3
:100EE00007F0025007E1180E015CD8B07AEF07F066
:100EF0007CEF07F0AAEF07F0F00E0126FF0E0222AA
:100F000003500410D8B487EF07F089EF07F099EF8A
:100F100007F001C005F0010E066E052A92EF07F0FA
:100F2000D8900636052E90EF07F00650821220EF7B
:100F300008F001C005F0010E066E052AA2EF07F0C9
:100F4000D8900636052EA0EF07F00650FF0A82164D
:100F500020EF08F002BEB8EF07F0025007E1200EC4
:100F6000015CD8B0B6EF07F0B8EF07F0E6EF07F096
:100F7000E80E0126FF0E022203500410D8B4C3EF7E
:100F800007F0C5EF07F0D5EF07F001C005F0010E3F
:100F9000066E052ACEEF07F0D8900636052ECCEF68
:100FA00007F00650831220EF08F001C005F0010E93
:100FB000066E052ADEEF07F0D8900636052EDCEF28
:100FC00007F00650FF0A831620EF08F002BEF4EF88
:100FD00007F0025007E1280E015CD8B0F2EF07F0ED
:100FE000F4EF07F020EF08F0E00E0126FF0E0222DA
:100FF00003500410D8B4FFEF07F001EF08F011EF31
:1010000008F001C005F0010E066E052A0AEF08F08F
:10101000D8900636052E08EF08F00650841220EF0F
:1010200008F001C005F0010E066E052A1AEF08F05F
:10103000D8900636052E18EF08F00650FF0A8416E1
:101040001200000E4A6E21EEA0F010EE09F00F0E15
:10105000DBCFE3FFE806FCE221EE90F010EE19F0A2
:101060000F0EDBCFE3FFE806FCE221EE80F010EE8E
:1010700029F00F0EDBCFE3FFE806FCE221EE70F073
:1010800010EE39F00F0EDBCFE3FFE806FCE2D6EC02
:101090000DF03DEC0DF0000E086E010E076E2BEC0E
:1010A0000EF0000E4B6E090E4B24D96EDA6A000E5C
:1010B000DA22DF5001EC0EF04B2A100E4B6463EF86
:1010C00008F065EF08F053EF08F0C00E85EC0CF067
:1010D000000E4B6E190E4B24D96EDA6A000EDA221E
:1010E000DF5001EC0EF04B2A100E4B647AEF08F043
:1010F0007CEF08F06AEF08F0900E85EC0CF0000E23
:101100004B6E290E4B24D96EDA6A000EDA22DF50BC
:1011100001EC0EF04B2A100E4B6491EF08F093EFA8
:1011200008F081EF08F0D00E85EC0CF0000E4B6E4D
:10113000390E4B24D96EDA6A000EDA22DF5001EC48
:101140000EF04B2A100E4B64A8EF08F0AAEF08F03F
:1011500098EF08F09690000E4B6E8470000E026EB1
:10116000640E016E79EC0DF0000E026E640E016EDD
:1011700079EC0DF04B2A090E4B64C1EF08F0C3EF78
:1011800008F0ADEF08F084909490000E4B6E8270E2
:10119000000E026E640E016E79EC0DF0000E026E10
:1011A000640E016E79EC0DF04B2A090E4B64DBEFF7
:1011B00008F0DDEF08F0C7EF08F08290270E026E0E
:1011C000100E016E79EC0DF0120083CF06F00F0EB9
:1011D0009512000E0A6EF80E93160AC001F0010E69
:1011E000026E012AF6EF08F0D8900236012EF4EFD5
:1011F00008F002509312070E81120AC001F0010E8E
:10120000026E012A06EF09F0D8900236012E04EF93
:1012100009F00250FF0A8116000E086E000E076EDC
:10122000074A082A08BE1EEF09F0085009E10A0E15
:10123000075CD8A01EEF09F020EF09F010EF09F0CD
:10124000000E096E09C001F0010E026E012A2BEF9B
:1012500009F0D8900236012E29EF09F002508314CC
:101260000009D8A436EF09F038EF09F050EF09F083
:101270000A50040DF3500924016E010E026E000E97
:10128000036E012A47EF09F0D89002360336012E8B
:1012900044EF09F002506C1203506D126AEF09F02E
:1012A0000A50040DF3500924016E010E026E000E67
:1012B000036E012A5FEF09F0D89002360336012E43
:1012C0005CEF09F0021C046E031C056E04506C16E2
:1012D00005506D16092A030E096471EF09F073EFCA
:1012E00009F022EF09F00A2A020E0A647AEF09F0E7
:1012F0007CEF09F0EBEF08F06C506A1807E16D50D5
:101300006B18D8A486EF09F088EF09F08BEF09F08D
:10131000760691EF09F00A0E766E6CC06AF06DC029
:101320006BF07650D8A497EF09F099EF09F09DEF94
:1013300009F06AC06EF06BC06FF006C083FF000E4C
:10134000956E1200000E4C6E100E4B6E000E4E6E1F
:10135000000E4F6E580E506E4F0E516E21EE60F023
:1013600010EE0BF00F0EDBCFE3FFE806FCE221EE00
:1013700050F010EE1BF00F0EDBCFE3FFE806FCE2AF
:1013800021EE40F010EE2BF00F0EDBCFE3FFE8066E
:10139000FCE221EE30F010EE3BF00F0EDBCFE3FF6E
:1013A000E806FCE27EEC0EF03DEC0DF00F0E85EC55
:1013B0000CF0E5EC08F0000E526E0B0E5224D96EC4
:1013C000DA6A000EDA22DF5001EC0EF0522A100E1B
:1013D0005264EDEF09F0EFEF09F0DDEF09F0C00E18
:1013E00085EC0CF0000E526E1B0E5224D96EDA6A98
:1013F000000EDA22DF5001EC0EF0522A100E526479
:1014000004EF0AF006EF0AF0F4EF09F0900E85EC15
:101410000CF0000E526E2B0E5224D96EDA6A000EBA
:10142000DA22DF5001EC0EF0522A100E52641BEF4C
:101430000AF01DEF0AF00BEF0AF0D00E85EC0CF06D
:10144000000E526E3B0E5224D96EDA6A000EDA227A
:10145000DF5001EC0EF0522A100E526432EF0AF007
:1014600034EF0AF022EF0AF0120020EEE0F010EE66
:1014700009F00F0EDBCFE3FFE806FCE220EED0F030
:1014800010EE19F00F0EDBCFE3FFE806FCE220EED2
:10149000C0F010EE29F00F0EDBCFE3FFE806FCE210
:1014A00020EEB0F010EE39F00F0EDBCFE3FFE806D0
:1014B000FCE23DEC0DF0000E496E090E4924D96E98
:1014C000DA6A000EDA22DF5001EC0EF0492A100E23
:1014D00049646DEF0AF06FEF0AF05DEF0AF0C00E9D
:1014E00085EC0CF0000E496E190E4924D96EDA6AAB
:1014F000000EDA22DF5001EC0EF0492A100E49648A
:1015000084EF0AF086EF0AF074EF0AF0900E85EC93
:101510000CF0000E496E290E4924D96EDA6A000ECD
:10152000DA22DF5001EC0EF0492A100E49649BEFDD
:101530000AF09DEF0AF08BEF0AF0D00E85EC0CF06C
:10154000000E496E390E4924D96EDA6A000EDA228D
:10155000DF5001EC0EF0492A100E4964B2EF0AF098
:10156000B4EF0AF0A2EF0AF0030E026EE80E016E6D
:1015700079EC0DF0030E026EE80E016E79EC0DF0C1
:10158000030E026EE80E016E79EC0DF01200000EF3
:101590000A6E08BED0EF0AF0CEEF0AF0DAEF0AF0DA
:1015A000081E071E061E056C000E062207220822D2
:1015B000010E0A6E04BEE1EF0AF0DFEF0AF0EBEF76
:1015C0000AF0041E031E021E016C000E02220322FA
:1015D0000422010E0A1A000E0B6E000E0C6E000E95
:1015E0000D6E000E0E6E0550061007100810D8B4D0
:1015F000FCEF0AF0FEEF0AF034EF0BF0010E096E7B
:1016000008EF0BF0D8900536063607360836092A5B
:1016100008AE0DEF0BF00FEF0BF002EF0BF0D890D0
:101620000B360C360D360E360550015C065002584E
:101630000750035808500458D8A021EF0BF023EFAF
:101640000BF02CEF0BF00550015E0650025A0750CC
:10165000035A0850045A0B80D890083207320632D9
:101660000532092E0FEF0BF00A50D8B43AEF0BF009
:101670003CEF0BF044EF0BF00E1E0D1E0C1E0B6C1E
:10168000000E0C220D220E220BC001F00CC002F045
:101690000DC003F00EC004F0120020EEA0F010EE1A
:1016A00009F00F0EDBCFE3FFE806FCE220EE90F03E
:1016B00010EE19F00F0EDBCFE3FFE806FCE220EEA0
:1016C00080F010EE29F00F0EDBCFE3FFE806FCE21E
:1016D00021EEB0F010EE39F00F0EDBCFE3FFE8069D
:1016E000FCE23DEC0DF0000E496E090E4924D96E66
:1016F000DA6A000EDA22DF5001EC0EF0492A100EF1
:10170000496485EF0BF087EF0BF075EF0BF0C00E1F
:1017100085EC0CF0000E496E190E4924D96EDA6A78
:10172000000EDA22DF5001EC0EF0492A100E496457
:101730009CEF0BF09EEF0BF08CEF0BF0900E85EC16
:101740000CF0000E496E290E4924D96EDA6A000E9B
:10175000DA22DF5001EC0EF0492A100E4964B3EF93
:101760000BF0B5EF0BF0A3EF0BF0D00E85EC0CF007
:10177000000E496E390E4924D96EDA6A000EDA225B
:10178000DF5001EC0EF0492A100E4964CAEF0BF04D
:10179000CCEF0BF0BAEF0BF012000000070E1E1E8C
:1017A0001E19070E1F000A00110E00001C0E0F0F5D
:1017B0000F13010000001F0000001F040C141F0481
:1017C0000A11100003041F0403005B205D20202089
:1017D0005B205D2020205B205D005B205D202020C1
:1017E0005B205D2020205B205D005B205D202020B1
:1017F0005B205D2020205B205D0023232323232307
:101800002323232323232323232374616F2052457F
:101810005345542020202020202050726573736986
:101820006F6E65206F20626F2D20202020202020E9
:101830002020202020202020202046494D204445E3
:10184000204A4F474F20202020205B235D2D3E2043
:10185000496E73747275636F657321EE00F010EE5C
:1018600009F02F0EDBCFE3FFE806FCE23DEC0DF0C4
:10187000400E85EC0CF0000E396E090E3924D96E3D
:10188000DA6A000EDA22DF5001EC0EF0392A2F0E50
:1018900039644DEF0CF04FEF0CF03DEF0CF08D0E76
:1018A00085EC0CF0000E01EC0EF0010E01EC0EF0D8
:1018B000020E01EC0EF0CD0E85EC0CF0030E01ECE7
:1018C0000EF0040E01EC0EF0050E01EC0EF0000E11
:1018D000396E000E026E960E016E79EC0DF0180E48
:1018E00085EC0CF0392A130E396479EF0CF07BEF9C
:1018F0000CF069EF0CF0392A3950D8B482EF0CF0B3
:1019000084EF0CF067EF0CF01200086E83CF07F045
:10191000000E956E000E026E220E016E000E046E19
:10192000000E036EFAEC06F008C083FF000E026E94
:10193000210E016E000E046E010E036EFAEC06F02D
:10194000000E026E210E016E000E046E000E036E7C
:10195000FAEC06F007C083FF020E0818D8B4B3EF04
:101960000CF0B5EF0CF0BDEF0CF00804D8A4BBEF01
:101970000CF0BDEF0CF0C1EF0CF052EC0EF0C3EF29
:101980000CF06DEC0EF012004465763A205069655B
:10199000727265202020202053656A612042656DA7
:1019A0002D56696E646F202023205449432D5441E5
:1019B000432D544F4520232063696F6E6172205878
:1019C000206F75204F202020312061203920706148
:1019D000726120706F73692D557365206F7320627B
:1019E0006F746F65732064653E3E494E5354525583
:1019F000434F45533A202020202020202020202023
:011A000020C5
:101A02000A6E0A50D8A408EF0DF00AEF0DF010EF9D
:101A12000DF00950800F0B6E0B5085EC0CF00A0490
:101A2200D8A416EF0DF018EF0DF01EEF0DF00950CF
:101A3200C00F0B6E0B5085EC0CF0020E0A18D8A4E6
:101A420025EF0DF027EF0DF02DEF0DF00950900F5F
:101A52000B6E0B5085EC0CF0030E0A18D8A434EF71
:101A62000DF036EF0DF03CEF0DF00950D00F0B6E7C
:101A72000B5085EC0CF01200000E026E220E016E6D
:101A8200000E046E000E036ED3EC05F0000E026E23
:101A9200210E016E000E046E000E036ED3EC05F0F3
:101AA200000E956E52EC0EF052EC0EF052EC0EF06F
:101AB20052EC0EF052EC0EF0380E85EC0CF052ECBB
:101AC2000EF052EC0EF0380E85EC0CF052EC0EF0EB
:101AD200380E85EC0CF0380E85EC0CF0060E85EC19
:101AE2000CF00C0E85EC0CF0010E85EC0CF01200E3
:101AF200000E046E000E036E9FEF0DF0000E056ED9
:101B0200280E056487EF0DF089EF0DF08BEF0DF0D5
:101B12009DEF0DF0000E066E020E066493EF0DF0BF
:101B220095EF0DF097EF0DF09AEF0DF0062A8DEF7D
:101B32000DF0052A81EF0DF0034A042A0150035CDF
:101B420002500458D8A0A8EF0DF0AAEF0DF07FEFD5
:101B52000DF012009A0EF66E170EF76E000EF86E6A
:101B620001EE00F010EEC0F00900F5CFEEFFE550F7
:101B7200E150FAE1880EF66E190EF76E000EF86E5D
:101B820000EE80F010EE79F00900F5CFEEFFE5509F
:101B9200E150FAE100EE6AF00D0EEE6AE806FDE1B0
:101BA200000EF86E000109EF03F0000E026E020E45
:101BB200016E000E046E000E036ED3EC05F0000EF3
:101BC200026E030E016E000E046E000E036ED3EC65
:101BD20005F0000E026E040E016E000E046E000E81
:101BE200036ED3EC05F0000E026E050E016E000EC0
:101BF200046E000E036ED3EC05F0000E956E12001B
:101C0200076E83CF08F0000E956E000E026E220E54
:101C1200016E000E046E010E036EFAEC06F007C0B0
:101C220083FF000E026E210E016E000E046E010E85
:101C3200036EFAEC06F0000E026E210E016E000E2B
:101C4200046E000E036EFAEC06F008C083FF6DEC22
:101C52000EF0120007040810D8A432EF0EF034EF91
:101C62000EF037EF0EF0948438EF0EF09494070ED6
:101C7200026ED00E016E79EC0DF01200480E016E6C
:101C8200E80E026E010E036E000E046E0FC005F028
:101C920010C006F0076A086AC7EC0AF00104CB6EAE
:101CA2001200000E026E6DEC0EF0022A310E02647A
:101CB2005DEF0EF05FEF0EF054EF0EF01200949411
:101CC200030ECA12CA840C0EBD6E000E106E640E94
:101CD2000F6E3FEC0EF01200000E016E012A180E7C
:101CE200016476EF0EF078EF0EF06FEF0EF0120057
:101CF2006EC001F06FC002F01200070E93160F0EB5
:041D02009512120024
:020000040020DA
:08000000FFFFFFFFFFFFFFFF00
:020000040030CA
:0E000000FF071F1FFF8385FF0FC00FE00F409B
:00000001FF
